{
  "_format": "hh-sol-artifact-1",
  "contractName": "Twitter",
  "sourceName": "contracts/Twitter.sol",
  "abi": [
    {
      "anonymous": false,
      "inputs": [
        {
          "indexed": true,
          "internalType": "address",
          "name": "uploader",
          "type": "address"
        },
        {
          "indexed": false,
          "internalType": "string",
          "name": "content",
          "type": "string"
        },
        {
          "indexed": false,
          "internalType": "uint256",
          "name": "timestamp",
          "type": "uint256"
        }
      ],
      "name": "tweatCreated",
      "type": "event"
    },
    {
      "inputs": [
        {
          "internalType": "string",
          "name": "_content",
          "type": "string"
        }
      ],
      "name": "createTweat",
      "outputs": [],
      "stateMutability": "nonpayable",
      "type": "function"
    },
    {
      "inputs": [],
      "name": "getAllTweat",
      "outputs": [
        {
          "components": [
            {
              "internalType": "address",
              "name": "uploader",
              "type": "address"
            },
            {
              "internalType": "string",
              "name": "content",
              "type": "string"
            },
            {
              "internalType": "uint256",
              "name": "timestamp",
              "type": "uint256"
            }
          ],
          "internalType": "struct Twitter.Tweat[]",
          "name": "",
          "type": "tuple[]"
        }
      ],
      "stateMutability": "view",
      "type": "function"
    },
    {
      "inputs": [
        {
          "internalType": "uint256",
          "name": "",
          "type": "uint256"
        }
      ],
      "name": "tweats",
      "outputs": [
        {
          "internalType": "address",
          "name": "uploader",
          "type": "address"
        },
        {
          "internalType": "string",
          "name": "content",
          "type": "string"
        },
        {
          "internalType": "uint256",
          "name": "timestamp",
          "type": "uint256"
        }
      ],
      "stateMutability": "view",
      "type": "function"
    }
  ],
  "bytecode": "0x6080604052348015600f57600080fd5b50610d528061001f6000396000f3fe608060405234801561001057600080fd5b50600436106100415760003560e01c80639061f58614610046578063a78fc2f014610062578063d577f4ca14610080575b600080fd5b610060600480360381019061005b91906105e1565b6100b2565b005b61006a610254565b6040516100779190610815565b60405180910390f35b61009a60048036038101906100959190610863565b6103a5565b6040516100a9939291906108f8565b60405180910390f35b60008151116100f6576040517f08c379a00000000000000000000000000000000000000000000000000000000081526004016100ed90610982565b60405180910390fd5b6101188151111561013c576040517f08c379a0000000000000000000000000000000000000000000000000000000008152600401610133906109ee565b60405180910390fd5b600060405180606001604052803373ffffffffffffffffffffffffffffffffffffffff16815260200183815260200142815250908060018154018082558091505060019003906000526020600020906003020160009091909190915060008201518160000160006101000a81548173ffffffffffffffffffffffffffffffffffffffff021916908373ffffffffffffffffffffffffffffffffffffffff16021790555060208201518160010190816101f49190610c1a565b506040820151816002015550503373ffffffffffffffffffffffffffffffffffffffff167f8f23a7f3285ba6d6d5af7e289b41119a1f3fec1fb1af315be8e64029fd53e0628242604051610249929190610cec565b60405180910390a250565b60606000805480602002602001604051908101604052809291908181526020016000905b8282101561039c57838290600052602060002090600302016040518060600160405290816000820160009054906101000a900473ffffffffffffffffffffffffffffffffffffffff1673ffffffffffffffffffffffffffffffffffffffff1673ffffffffffffffffffffffffffffffffffffffff16815260200160018201805461030190610a3d565b80601f016020809104026020016040519081016040528092919081815260200182805461032d90610a3d565b801561037a5780601f1061034f5761010080835404028352916020019161037a565b820191906000526020600020905b81548152906001019060200180831161035d57829003601f168201915b5050505050815260200160028201548152505081526020019060010190610278565b50505050905090565b600081815481106103b557600080fd5b90600052602060002090600302016000915090508060000160009054906101000a900473ffffffffffffffffffffffffffffffffffffffff16908060010180546103fe90610a3d565b80601f016020809104026020016040519081016040528092919081815260200182805461042a90610a3d565b80156104775780601f1061044c57610100808354040283529160200191610477565b820191906000526020600020905b81548152906001019060200180831161045a57829003601f168201915b5050505050908060020154905083565b6000604051905090565b600080fd5b600080fd5b600080fd5b600080fd5b6000601f19601f8301169050919050565b7f4e487b7100000000000000000000000000000000000000000000000000000000600052604160045260246000fd5b6104ee826104a5565b810181811067ffffffffffffffff8211171561050d5761050c6104b6565b5b80604052505050565b6000610520610487565b905061052c82826104e5565b919050565b600067ffffffffffffffff82111561054c5761054b6104b6565b5b610555826104a5565b9050602081019050919050565b82818337600083830152505050565b600061058461057f84610531565b610516565b9050828152602081018484840111156105a05761059f6104a0565b5b6105ab848285610562565b509392505050565b600082601f8301126105c8576105c761049b565b5b81356105d8848260208601610571565b91505092915050565b6000602082840312156105f7576105f6610491565b5b600082013567ffffffffffffffff81111561061557610614610496565b5b610621848285016105b3565b91505092915050565b600081519050919050565b600082825260208201905092915050565b6000819050602082019050919050565b600073ffffffffffffffffffffffffffffffffffffffff82169050919050565b600061068182610656565b9050919050565b61069181610676565b82525050565b600081519050919050565b600082825260208201905092915050565b60005b838110156106d15780820151818401526020810190506106b6565b60008484015250505050565b60006106e882610697565b6106f281856106a2565b93506107028185602086016106b3565b61070b816104a5565b840191505092915050565b6000819050919050565b61072981610716565b82525050565b60006060830160008301516107476000860182610688565b506020830151848203602086015261075f82826106dd565b91505060408301516107746040860182610720565b508091505092915050565b600061078b838361072f565b905092915050565b6000602082019050919050565b60006107ab8261062a565b6107b58185610635565b9350836020820285016107c785610646565b8060005b8581101561080357848403895281516107e4858261077f565b94506107ef83610793565b925060208a019950506001810190506107cb565b50829750879550505050505092915050565b6000602082019050818103600083015261082f81846107a0565b905092915050565b61084081610716565b811461084b57600080fd5b50565b60008135905061085d81610837565b92915050565b60006020828403121561087957610878610491565b5b60006108878482850161084e565b91505092915050565b61089981610676565b82525050565b600082825260208201905092915050565b60006108bb82610697565b6108c5818561089f565b93506108d58185602086016106b3565b6108de816104a5565b840191505092915050565b6108f281610716565b82525050565b600060608201905061090d6000830186610890565b818103602083015261091f81856108b0565b905061092e60408301846108e9565b949350505050565b7f7468652074776561742073686f756c64206e6f7420626520656d707479000000600082015250565b600061096c601d8361089f565b915061097782610936565b602082019050919050565b6000602082019050818103600083015261099b8161095f565b9050919050565b7f74686520747765617420697320746f6f206c6f6e670000000000000000000000600082015250565b60006109d860158361089f565b91506109e3826109a2565b602082019050919050565b60006020820190508181036000830152610a07816109cb565b9050919050565b7f4e487b7100000000000000000000000000000000000000000000000000000000600052602260045260246000fd5b60006002820490506001821680610a5557607f821691505b602082108103610a6857610a67610a0e565b5b50919050565b60008190508160005260206000209050919050565b60006020601f8301049050919050565b600082821b905092915050565b600060088302610ad07fffffffffffffffffffffffffffffffffffffffffffffffffffffffffffffffff82610a93565b610ada8683610a93565b95508019841693508086168417925050509392505050565b6000819050919050565b6000610b17610b12610b0d84610716565b610af2565b610716565b9050919050565b6000819050919050565b610b3183610afc565b610b45610b3d82610b1e565b848454610aa0565b825550505050565b600090565b610b5a610b4d565b610b65818484610b28565b505050565b5b81811015610b8957610b7e600082610b52565b600181019050610b6b565b5050565b601f821115610bce57610b9f81610a6e565b610ba884610a83565b81016020851015610bb7578190505b610bcb610bc385610a83565b830182610b6a565b50505b505050565b600082821c905092915050565b6000610bf160001984600802610bd3565b1980831691505092915050565b6000610c0a8383610be0565b9150826002028217905092915050565b610c2382610697565b67ffffffffffffffff811115610c3c57610c3b6104b6565b5b610c468254610a3d565b610c51828285610b8d565b600060209050601f831160018114610c845760008415610c72578287015190505b610c7c8582610bfe565b865550610ce4565b601f198416610c9286610a6e565b60005b82811015610cba57848901518255600182019150602085019450602081019050610c95565b86831015610cd75784890151610cd3601f891682610be0565b8355505b6001600288020188555050505b505050505050565b60006040820190508181036000830152610d0681856108b0565b9050610d1560208301846108e9565b939250505056fea26469706673582212206c780b5a3bde98e815c4b4e7307bea262e69c6f24b8af130f6df66138ad8fa2d64736f6c634300081c0033",
  "linkReferences": {},
  "deployedLinkReferences": {}
}